{"abi":[{"anonymous":false,"inputs":[{"indexed":true,"internalType":"address","name":"previousOwner","type":"address"},{"indexed":true,"internalType":"address","name":"newOwner","type":"address"}],"name":"OwnershipTransferred","type":"event"},{"inputs":[],"name":"adminWithdraw","outputs":[],"stateMutability":"payable","type":"function"},{"inputs":[],"name":"allowedTokenAddress","outputs":[{"internalType":"address","name":"","type":"address"}],"stateMutability":"view","type":"function"},{"inputs":[{"internalType":"address","name":"_seller","type":"address"}],"name":"approveSellTransaction","outputs":[],"stateMutability":"payable","type":"function"},{"inputs":[{"internalType":"address","name":"_sellerAddress","type":"address"}],"name":"checkSellerBalance","outputs":[{"internalType":"uint256","name":"","type":"uint256"}],"stateMutability":"view","type":"function"},{"inputs":[{"internalType":"address","name":"_seller","type":"address"}],"name":"checkSellerList","outputs":[{"internalType":"bool","name":"","type":"bool"}],"stateMutability":"view","type":"function"},{"inputs":[],"name":"owner","outputs":[{"internalType":"address","name":"","type":"address"}],"stateMutability":"view","type":"function"},{"inputs":[],"name":"renounceOwnership","outputs":[],"stateMutability":"nonpayable","type":"function"},{"inputs":[{"internalType":"address","name":"","type":"address"}],"name":"sellersBalance","outputs":[{"internalType":"uint256","name":"","type":"uint256"}],"stateMutability":"view","type":"function"},{"inputs":[{"internalType":"address","name":"newOwner","type":"address"}],"name":"transferOwnership","outputs":[],"stateMutability":"nonpayable","type":"function"},{"inputs":[{"internalType":"address","name":"_seller","type":"address"},{"internalType":"uint256","name":"_amount","type":"uint256"}],"name":"updateSellerBalance","outputs":[],"stateMutability":"nonpayable","type":"function"},{"inputs":[],"name":"withdraw","outputs":[],"stateMutability":"nonpayable","type":"function"}],"bytecode":"608060405234801561001057600080fd5b5061001a3361001f565b61006f565b600080546001600160a01b038381166001600160a01b0319831681178455604051919092169283917f8be0079c531659141344cd1fd0a4f28419497f9722a3daafe3b4186f6b6457e09190a35050565b6108688061007e6000396000f3fe60806040526004361061009c5760003560e01c8063715018a611610064578063715018a6146101735780637fb05086146101885780638b38f3d21461019b5780638da5cb5b146101c8578063f18d20be146101e6578063f2fde38b146101ee57600080fd5b8063069d233e146100a157806307c115ed146100d4578063376c060c146100f65780633ccfd60b1461012e5780634207d43a14610143575b600080fd5b3480156100ad57600080fd5b506100c16100bc366004610754565b61020e565b6040519081526020015b60405180910390f35b3480156100e057600080fd5b506100f46100ef366004610776565b610241565b005b34801561010257600080fd5b50600254610116906001600160a01b031681565b6040516001600160a01b0390911681526020016100cb565b34801561013a57600080fd5b506100f46102df565b34801561014f57600080fd5b5061016361015e366004610754565b6103d7565b60405190151581526020016100cb565b34801561017f57600080fd5b506100f4610440565b6100f4610196366004610754565b610476565b3480156101a757600080fd5b506100c16101b6366004610754565b60036020526000908152604090205481565b3480156101d457600080fd5b506000546001600160a01b0316610116565b6100f46104d3565b3480156101fa57600080fd5b506100f4610209366004610754565b610654565b6000610219826103d7565b61022557506000919050565b506001600160a01b031660009081526003602052604090205490565b6001600160a01b0382166000908152600360205260409020546102659082906107b6565b6001600160a01b038316600090815260036020526040902055610287826103d7565b15156000036102db576001805480820182556000919091527fb10e2d527612073b26eecdfd717e6a320cf44b4afac2b0732d9fcbe2b7fa0cf60180546001600160a01b0319166001600160a01b0384161790555b5050565b6102e8336103d7565b6103395760405162461bcd60e51b815260206004820152601f60248201527f5573657220686173206e6f7420736f6c6420616e79206974656d207965742e0060448201526064015b60405180910390fd5b33600090815260036020526040902054806103965760405162461bcd60e51b815260206004820152601860248201527f596f75722062616c616e63652063616e6e6f74206265203000000000000000006044820152606401610330565b604051339082156108fc029083906000818181858888f193505050501580156103c3573d6000803e3d6000fd5b505033600090815260036020526040812055565b6000805b60015481101561043757826001600160a01b031660018281548110610402576104026107ce565b6000918252602090912001546001600160a01b0316036104255750600192915050565b8061042f816107e4565b9150506103db565b50600092915050565b6000546001600160a01b0316331461046a5760405162461bcd60e51b8152600401610330906107fd565b61047460006106e8565b565b600034116104c65760405162461bcd60e51b815260206004820152601d60248201527f416d6f756e74206d757374206265206d6f7265207468616e207a65726f0000006044820152606401610330565b6104d08134610241565b50565b6000546001600160a01b031633146104fd5760405162461bcd60e51b8152600401610330906107fd565b6001546105625760405162461bcd60e51b815260206004820152602d60248201527f4e6f2073656c6c657273207965743a206e6f206974656d7320736f6c64206f6e60448201526c2074686973206e6574776f726b60981b6064820152608401610330565b60005b6001548110156104d05760018181548110610582576105826107ce565b6000918252602082200154600180546001600160a01b03909216926108fc9260039290869081106105b5576105b56107ce565b60009182526020808320909101546001600160a01b03168352820192909252604090810182205490518115909302929091818181858888f19350505050158015610603573d6000803e3d6000fd5b506000600360006001848154811061061d5761061d6107ce565b60009182526020808320909101546001600160a01b031683528201929092526040019020558061064c816107e4565b915050610565565b6000546001600160a01b0316331461067e5760405162461bcd60e51b8152600401610330906107fd565b6001600160a01b0381166106e35760405162461bcd60e51b815260206004820152602660248201527f4f776e61626c653a206e6577206f776e657220697320746865207a65726f206160448201526564647265737360d01b6064820152608401610330565b6104d0815b600080546001600160a01b038381166001600160a01b0319831681178455604051919092169283917f8be0079c531659141344cd1fd0a4f28419497f9722a3daafe3b4186f6b6457e09190a35050565b80356001600160a01b038116811461074f57600080fd5b919050565b60006020828403121561076657600080fd5b61076f82610738565b9392505050565b6000806040838503121561078957600080fd5b61079283610738565b946020939093013593505050565b634e487b7160e01b600052601160045260246000fd5b600082198211156107c9576107c96107a0565b500190565b634e487b7160e01b600052603260045260246000fd5b6000600182016107f6576107f66107a0565b5060010190565b6020808252818101527f4f776e61626c653a2063616c6c6572206973206e6f7420746865206f776e657260408201526060019056fea26469706673582212202d6128e1eb7c91c9985bdadbf5677cabd25148ccdb2e7d64a55fc90ad14b012c64736f6c634300080f0033","bytecodeSha1":"5f1ebe5cee93afe6bd0ff4bc02d9cc01b2a78f17","compiler":{"evm_version":"istanbul","optimizer":{"enabled":true,"runs":200},"version":"0.8.15+commit.e14f2714"},"contractName":"OnlineStore","language":"Solidity","natspec":{"kind":"dev","methods":{"owner()":{"details":"Returns the address of the current owner."},"renounceOwnership()":{"details":"Leaves the contract without owner. It will not be possible to call `onlyOwner` functions anymore. Can only be called by the current owner. NOTE: Renouncing ownership will leave the contract without an owner, thereby removing any functionality that is only available to the owner."},"transferOwnership(address)":{"details":"Transfers ownership of the contract to a new account (`newOwner`). Can only be called by the current owner."}},"version":1},"opcodes":"PUSH1 0x80 PUSH1 0x40 MSTORE PUSH1 0x4 CALLDATASIZE LT PUSH2 0x9C JUMPI PUSH1 0x0 CALLDATALOAD PUSH1 0xE0 SHR DUP1 PUSH4 0x715018A6 GT PUSH2 0x64 JUMPI DUP1 PUSH4 0x715018A6 EQ PUSH2 0x173 JUMPI DUP1 PUSH4 0x7FB05086 EQ PUSH2 0x188 JUMPI DUP1 PUSH4 0x8B38F3D2 EQ PUSH2 0x19B JUMPI DUP1 PUSH4 0x8DA5CB5B EQ PUSH2 0x1C8 JUMPI DUP1 PUSH4 0xF18D20BE EQ PUSH2 0x1E6 JUMPI DUP1 PUSH4 0xF2FDE38B EQ PUSH2 0x1EE JUMPI PUSH1 0x0 DUP1 REVERT JUMPDEST DUP1 PUSH4 0x69D233E EQ PUSH2 0xA1 JUMPI DUP1 PUSH4 0x7C115ED EQ PUSH2 0xD4 JUMPI DUP1 PUSH4 0x376C060C EQ PUSH2 0xF6 JUMPI DUP1 PUSH4 0x3CCFD60B EQ PUSH2 0x12E JUMPI DUP1 PUSH4 0x4207D43A EQ PUSH2 0x143 JUMPI JUMPDEST PUSH1 0x0 DUP1 REVERT JUMPDEST CALLVALUE DUP1 ISZERO PUSH2 0xAD JUMPI PUSH1 0x0 DUP1 REVERT JUMPDEST POP PUSH2 0xC1 PUSH2 0xBC CALLDATASIZE PUSH1 0x4 PUSH2 0x754 JUMP JUMPDEST PUSH2 0x20E JUMP JUMPDEST PUSH1 0x40 MLOAD SWAP1 DUP2 MSTORE PUSH1 0x20 ADD JUMPDEST PUSH1 0x40 MLOAD DUP1 SWAP2 SUB SWAP1 RETURN JUMPDEST CALLVALUE DUP1 ISZERO PUSH2 0xE0 JUMPI PUSH1 0x0 DUP1 REVERT JUMPDEST POP PUSH2 0xF4 PUSH2 0xEF CALLDATASIZE PUSH1 0x4 PUSH2 0x776 JUMP JUMPDEST PUSH2 0x241 JUMP JUMPDEST STOP JUMPDEST CALLVALUE DUP1 ISZERO PUSH2 0x102 JUMPI PUSH1 0x0 DUP1 REVERT JUMPDEST POP PUSH1 0x2 SLOAD PUSH2 0x116 SWAP1 PUSH1 0x1 PUSH1 0x1 PUSH1 0xA0 SHL SUB AND DUP2 JUMP JUMPDEST PUSH1 0x40 MLOAD PUSH1 0x1 PUSH1 0x1 PUSH1 0xA0 SHL SUB SWAP1 SWAP2 AND DUP2 MSTORE PUSH1 0x20 ADD PUSH2 0xCB JUMP JUMPDEST CALLVALUE DUP1 ISZERO PUSH2 0x13A JUMPI PUSH1 0x0 DUP1 REVERT JUMPDEST POP PUSH2 0xF4 PUSH2 0x2DF JUMP JUMPDEST CALLVALUE DUP1 ISZERO PUSH2 0x14F JUMPI PUSH1 0x0 DUP1 REVERT JUMPDEST POP PUSH2 0x163 PUSH2 0x15E CALLDATASIZE PUSH1 0x4 PUSH2 0x754 JUMP JUMPDEST PUSH2 0x3D7 JUMP JUMPDEST PUSH1 0x40 MLOAD SWAP1 ISZERO ISZERO DUP2 MSTORE PUSH1 0x20 ADD PUSH2 0xCB JUMP JUMPDEST CALLVALUE DUP1 ISZERO PUSH2 0x17F JUMPI PUSH1 0x0 DUP1 REVERT JUMPDEST POP PUSH2 0xF4 PUSH2 0x440 JUMP JUMPDEST PUSH2 0xF4 PUSH2 0x196 CALLDATASIZE PUSH1 0x4 PUSH2 0x754 JUMP JUMPDEST PUSH2 0x476 JUMP JUMPDEST CALLVALUE DUP1 ISZERO PUSH2 0x1A7 JUMPI PUSH1 0x0 DUP1 REVERT JUMPDEST POP PUSH2 0xC1 PUSH2 0x1B6 CALLDATASIZE PUSH1 0x4 PUSH2 0x754 JUMP JUMPDEST PUSH1 0x3 PUSH1 0x20 MSTORE PUSH1 0x0 SWAP1 DUP2 MSTORE PUSH1 0x40 SWAP1 KECCAK256 SLOAD DUP2 JUMP JUMPDEST CALLVALUE DUP1 ISZERO PUSH2 0x1D4 JUMPI PUSH1 0x0 DUP1 REVERT JUMPDEST POP PUSH1 0x0 SLOAD PUSH1 0x1 PUSH1 0x1 PUSH1 0xA0 SHL SUB AND PUSH2 0x116 JUMP JUMPDEST PUSH2 0xF4 PUSH2 0x4D3 JUMP JUMPDEST CALLVALUE DUP1 ISZERO PUSH2 0x1FA JUMPI PUSH1 0x0 DUP1 REVERT JUMPDEST POP PUSH2 0xF4 PUSH2 0x209 CALLDATASIZE PUSH1 0x4 PUSH2 0x754 JUMP JUMPDEST PUSH2 0x654 JUMP JUMPDEST PUSH1 0x0 PUSH2 0x219 DUP3 PUSH2 0x3D7 JUMP JUMPDEST PUSH2 0x225 JUMPI POP PUSH1 0x0 SWAP2 SWAP1 POP JUMP JUMPDEST POP PUSH1 0x1 PUSH1 0x1 PUSH1 0xA0 SHL SUB AND PUSH1 0x0 SWAP1 DUP2 MSTORE PUSH1 0x3 PUSH1 0x20 MSTORE PUSH1 0x40 SWAP1 KECCAK256 SLOAD SWAP1 JUMP JUMPDEST PUSH1 0x1 PUSH1 0x1 PUSH1 0xA0 SHL SUB DUP3 AND PUSH1 0x0 SWAP1 DUP2 MSTORE PUSH1 0x3 PUSH1 0x20 MSTORE PUSH1 0x40 SWAP1 KECCAK256 SLOAD PUSH2 0x265 SWAP1 DUP3 SWAP1 PUSH2 0x7B6 JUMP JUMPDEST PUSH1 0x1 PUSH1 0x1 PUSH1 0xA0 SHL SUB DUP4 AND PUSH1 0x0 SWAP1 DUP2 MSTORE PUSH1 0x3 PUSH1 0x20 MSTORE PUSH1 0x40 SWAP1 KECCAK256 SSTORE PUSH2 0x287 DUP3 PUSH2 0x3D7 JUMP JUMPDEST ISZERO ISZERO PUSH1 0x0 SUB PUSH2 0x2DB JUMPI PUSH1 0x1 DUP1 SLOAD DUP1 DUP3 ADD DUP3 SSTORE PUSH1 0x0 SWAP2 SWAP1 SWAP2 MSTORE PUSH32 0xB10E2D527612073B26EECDFD717E6A320CF44B4AFAC2B0732D9FCBE2B7FA0CF6 ADD DUP1 SLOAD PUSH1 0x1 PUSH1 0x1 PUSH1 0xA0 SHL SUB NOT AND PUSH1 0x1 PUSH1 0x1 PUSH1 0xA0 SHL SUB DUP5 AND OR SWAP1 SSTORE JUMPDEST POP POP JUMP JUMPDEST PUSH2 0x2E8 CALLER PUSH2 0x3D7 JUMP JUMPDEST PUSH2 0x339 JUMPI PUSH1 0x40 MLOAD PUSH3 0x461BCD PUSH1 0xE5 SHL DUP2 MSTORE PUSH1 0x20 PUSH1 0x4 DUP3 ADD MSTORE PUSH1 0x1F PUSH1 0x24 DUP3 ADD MSTORE PUSH32 0x5573657220686173206E6F7420736F6C6420616E79206974656D207965742E00 PUSH1 0x44 DUP3 ADD MSTORE PUSH1 0x64 ADD JUMPDEST PUSH1 0x40 MLOAD DUP1 SWAP2 SUB SWAP1 REVERT JUMPDEST CALLER PUSH1 0x0 SWAP1 DUP2 MSTORE PUSH1 0x3 PUSH1 0x20 MSTORE PUSH1 0x40 SWAP1 KECCAK256 SLOAD DUP1 PUSH2 0x396 JUMPI PUSH1 0x40 MLOAD PUSH3 0x461BCD PUSH1 0xE5 SHL DUP2 MSTORE PUSH1 0x20 PUSH1 0x4 DUP3 ADD MSTORE PUSH1 0x18 PUSH1 0x24 DUP3 ADD MSTORE PUSH32 0x596F75722062616C616E63652063616E6E6F7420626520300000000000000000 PUSH1 0x44 DUP3 ADD MSTORE PUSH1 0x64 ADD PUSH2 0x330 JUMP JUMPDEST PUSH1 0x40 MLOAD CALLER SWAP1 DUP3 ISZERO PUSH2 0x8FC MUL SWAP1 DUP4 SWAP1 PUSH1 0x0 DUP2 DUP2 DUP2 DUP6 DUP9 DUP9 CALL SWAP4 POP POP POP POP ISZERO DUP1 ISZERO PUSH2 0x3C3 JUMPI RETURNDATASIZE PUSH1 0x0 DUP1 RETURNDATACOPY RETURNDATASIZE PUSH1 0x0 REVERT JUMPDEST POP POP CALLER PUSH1 0x0 SWAP1 DUP2 MSTORE PUSH1 0x3 PUSH1 0x20 MSTORE PUSH1 0x40 DUP2 KECCAK256 SSTORE JUMP JUMPDEST PUSH1 0x0 DUP1 JUMPDEST PUSH1 0x1 SLOAD DUP2 LT ISZERO PUSH2 0x437 JUMPI DUP3 PUSH1 0x1 PUSH1 0x1 PUSH1 0xA0 SHL SUB AND PUSH1 0x1 DUP3 DUP2 SLOAD DUP2 LT PUSH2 0x402 JUMPI PUSH2 0x402 PUSH2 0x7CE JUMP JUMPDEST PUSH1 0x0 SWAP2 DUP3 MSTORE PUSH1 0x20 SWAP1 SWAP2 KECCAK256 ADD SLOAD PUSH1 0x1 PUSH1 0x1 PUSH1 0xA0 SHL SUB AND SUB PUSH2 0x425 JUMPI POP PUSH1 0x1 SWAP3 SWAP2 POP POP JUMP JUMPDEST DUP1 PUSH2 0x42F DUP2 PUSH2 0x7E4 JUMP JUMPDEST SWAP2 POP POP PUSH2 0x3DB JUMP JUMPDEST POP PUSH1 0x0 SWAP3 SWAP2 POP POP JUMP JUMPDEST PUSH1 0x0 SLOAD PUSH1 0x1 PUSH1 0x1 PUSH1 0xA0 SHL SUB AND CALLER EQ PUSH2 0x46A JUMPI PUSH1 0x40 MLOAD PUSH3 0x461BCD PUSH1 0xE5 SHL DUP2 MSTORE PUSH1 0x4 ADD PUSH2 0x330 SWAP1 PUSH2 0x7FD JUMP JUMPDEST PUSH2 0x474 PUSH1 0x0 PUSH2 0x6E8 JUMP JUMPDEST JUMP JUMPDEST PUSH1 0x0 CALLVALUE GT PUSH2 0x4C6 JUMPI PUSH1 0x40 MLOAD PUSH3 0x461BCD PUSH1 0xE5 SHL DUP2 MSTORE PUSH1 0x20 PUSH1 0x4 DUP3 ADD MSTORE PUSH1 0x1D PUSH1 0x24 DUP3 ADD MSTORE PUSH32 0x416D6F756E74206D757374206265206D6F7265207468616E207A65726F000000 PUSH1 0x44 DUP3 ADD MSTORE PUSH1 0x64 ADD PUSH2 0x330 JUMP JUMPDEST PUSH2 0x4D0 DUP2 CALLVALUE PUSH2 0x241 JUMP JUMPDEST POP JUMP JUMPDEST PUSH1 0x0 SLOAD PUSH1 0x1 PUSH1 0x1 PUSH1 0xA0 SHL SUB AND CALLER EQ PUSH2 0x4FD JUMPI PUSH1 0x40 MLOAD PUSH3 0x461BCD PUSH1 0xE5 SHL DUP2 MSTORE PUSH1 0x4 ADD PUSH2 0x330 SWAP1 PUSH2 0x7FD JUMP JUMPDEST PUSH1 0x1 SLOAD PUSH2 0x562 JUMPI PUSH1 0x40 MLOAD PUSH3 0x461BCD PUSH1 0xE5 SHL DUP2 MSTORE PUSH1 0x20 PUSH1 0x4 DUP3 ADD MSTORE PUSH1 0x2D PUSH1 0x24 DUP3 ADD MSTORE PUSH32 0x4E6F2073656C6C657273207965743A206E6F206974656D7320736F6C64206F6E PUSH1 0x44 DUP3 ADD MSTORE PUSH13 0x2074686973206E6574776F726B PUSH1 0x98 SHL PUSH1 0x64 DUP3 ADD MSTORE PUSH1 0x84 ADD PUSH2 0x330 JUMP JUMPDEST PUSH1 0x0 JUMPDEST PUSH1 0x1 SLOAD DUP2 LT ISZERO PUSH2 0x4D0 JUMPI PUSH1 0x1 DUP2 DUP2 SLOAD DUP2 LT PUSH2 0x582 JUMPI PUSH2 0x582 PUSH2 0x7CE JUMP JUMPDEST PUSH1 0x0 SWAP2 DUP3 MSTORE PUSH1 0x20 DUP3 KECCAK256 ADD SLOAD PUSH1 0x1 DUP1 SLOAD PUSH1 0x1 PUSH1 0x1 PUSH1 0xA0 SHL SUB SWAP1 SWAP3 AND SWAP3 PUSH2 0x8FC SWAP3 PUSH1 0x3 SWAP3 SWAP1 DUP7 SWAP1 DUP2 LT PUSH2 0x5B5 JUMPI PUSH2 0x5B5 PUSH2 0x7CE JUMP JUMPDEST PUSH1 0x0 SWAP2 DUP3 MSTORE PUSH1 0x20 DUP1 DUP4 KECCAK256 SWAP1 SWAP2 ADD SLOAD PUSH1 0x1 PUSH1 0x1 PUSH1 0xA0 SHL SUB AND DUP4 MSTORE DUP3 ADD SWAP3 SWAP1 SWAP3 MSTORE PUSH1 0x40 SWAP1 DUP2 ADD DUP3 KECCAK256 SLOAD SWAP1 MLOAD DUP2 ISZERO SWAP1 SWAP4 MUL SWAP3 SWAP1 SWAP2 DUP2 DUP2 DUP2 DUP6 DUP9 DUP9 CALL SWAP4 POP POP POP POP ISZERO DUP1 ISZERO PUSH2 0x603 JUMPI RETURNDATASIZE PUSH1 0x0 DUP1 RETURNDATACOPY RETURNDATASIZE PUSH1 0x0 REVERT JUMPDEST POP PUSH1 0x0 PUSH1 0x3 PUSH1 0x0 PUSH1 0x1 DUP5 DUP2 SLOAD DUP2 LT PUSH2 0x61D JUMPI PUSH2 0x61D PUSH2 0x7CE JUMP JUMPDEST PUSH1 0x0 SWAP2 DUP3 MSTORE PUSH1 0x20 DUP1 DUP4 KECCAK256 SWAP1 SWAP2 ADD SLOAD PUSH1 0x1 PUSH1 0x1 PUSH1 0xA0 SHL SUB AND DUP4 MSTORE DUP3 ADD SWAP3 SWAP1 SWAP3 MSTORE PUSH1 0x40 ADD SWAP1 KECCAK256 SSTORE DUP1 PUSH2 0x64C DUP2 PUSH2 0x7E4 JUMP JUMPDEST SWAP2 POP POP PUSH2 0x565 JUMP JUMPDEST PUSH1 0x0 SLOAD PUSH1 0x1 PUSH1 0x1 PUSH1 0xA0 SHL SUB AND CALLER EQ PUSH2 0x67E JUMPI PUSH1 0x40 MLOAD PUSH3 0x461BCD PUSH1 0xE5 SHL DUP2 MSTORE PUSH1 0x4 ADD PUSH2 0x330 SWAP1 PUSH2 0x7FD JUMP JUMPDEST PUSH1 0x1 PUSH1 0x1 PUSH1 0xA0 SHL SUB DUP2 AND PUSH2 0x6E3 JUMPI PUSH1 0x40 MLOAD PUSH3 0x461BCD PUSH1 0xE5 SHL DUP2 MSTORE PUSH1 0x20 PUSH1 0x4 DUP3 ADD MSTORE PUSH1 0x26 PUSH1 0x24 DUP3 ADD MSTORE PUSH32 0x4F776E61626C653A206E6577206F776E657220697320746865207A65726F2061 PUSH1 0x44 DUP3 ADD MSTORE PUSH6 0x646472657373 PUSH1 0xD0 SHL PUSH1 0x64 DUP3 ADD MSTORE PUSH1 0x84 ADD PUSH2 0x330 JUMP JUMPDEST PUSH2 0x4D0 DUP2 JUMPDEST PUSH1 0x0 DUP1 SLOAD PUSH1 0x1 PUSH1 0x1 PUSH1 0xA0 SHL SUB DUP4 DUP2 AND PUSH1 0x1 PUSH1 0x1 PUSH1 0xA0 SHL SUB NOT DUP4 AND DUP2 OR DUP5 SSTORE PUSH1 0x40 MLOAD SWAP2 SWAP1 SWAP3 AND SWAP3 DUP4 SWAP2 PUSH32 0x8BE0079C531659141344CD1FD0A4F28419497F9722A3DAAFE3B4186F6B6457E0 SWAP2 SWAP1 LOG3 POP POP JUMP JUMPDEST DUP1 CALLDATALOAD PUSH1 0x1 PUSH1 0x1 PUSH1 0xA0 SHL SUB DUP2 AND DUP2 EQ PUSH2 0x74F JUMPI PUSH1 0x0 DUP1 REVERT JUMPDEST SWAP2 SWAP1 POP JUMP JUMPDEST PUSH1 0x0 PUSH1 0x20 DUP3 DUP5 SUB SLT ISZERO PUSH2 0x766 JUMPI PUSH1 0x0 DUP1 REVERT JUMPDEST PUSH2 0x76F DUP3 PUSH2 0x738 JUMP JUMPDEST SWAP4 SWAP3 POP POP POP JUMP JUMPDEST PUSH1 0x0 DUP1 PUSH1 0x40 DUP4 DUP6 SUB SLT ISZERO PUSH2 0x789 JUMPI PUSH1 0x0 DUP1 REVERT JUMPDEST PUSH2 0x792 DUP4 PUSH2 0x738 JUMP JUMPDEST SWAP5 PUSH1 0x20 SWAP4 SWAP1 SWAP4 ADD CALLDATALOAD SWAP4 POP POP POP JUMP JUMPDEST PUSH4 0x4E487B71 PUSH1 0xE0 SHL PUSH1 0x0 MSTORE PUSH1 0x11 PUSH1 0x4 MSTORE PUSH1 0x24 PUSH1 0x0 REVERT JUMPDEST PUSH1 0x0 DUP3 NOT DUP3 GT ISZERO PUSH2 0x7C9 JUMPI PUSH2 0x7C9 PUSH2 0x7A0 JUMP JUMPDEST POP ADD SWAP1 JUMP JUMPDEST PUSH4 0x4E487B71 PUSH1 0xE0 SHL PUSH1 0x0 MSTORE PUSH1 0x32 PUSH1 0x4 MSTORE PUSH1 0x24 PUSH1 0x0 REVERT JUMPDEST PUSH1 0x0 PUSH1 0x1 DUP3 ADD PUSH2 0x7F6 JUMPI PUSH2 0x7F6 PUSH2 0x7A0 JUMP JUMPDEST POP PUSH1 0x1 ADD SWAP1 JUMP JUMPDEST PUSH1 0x20 DUP1 DUP3 MSTORE DUP2 DUP2 ADD MSTORE PUSH32 0x4F776E61626C653A2063616C6C6572206973206E6F7420746865206F776E6572 PUSH1 0x40 DUP3 ADD MSTORE PUSH1 0x60 ADD SWAP1 JUMP INVALID LOG2 PUSH5 0x6970667358 0x22 SLT KECCAK256 0x2D PUSH2 0x28E1 0xEB PUSH29 0x91C9985BDADBF5677CABD25148CCDB2E7D64A55FC90AD14B012C64736F PUSH13 0x634300080F0033000000000000 ","sha1":"54be2ffbcb68b5ae0d390d47f4cc7bea9d654182","source":"// SPDX-License-Identifier: MIT\n\npragma solidity ^0.8.0;\n\nimport \"@openzeppelin/contracts/access/Ownable.sol\";\nimport \"@openzeppelin/contracts/token/ERC20/IERC20.sol\";\n\ncontract OnlineStore is Ownable {\n    address[] sellers;\n    address public allowedTokenAddress;\n\n    mapping(address => uint256) public sellersBalance;\n\n    function approveSellTransaction(address _seller) public payable {\n        require(msg.value > 0, \"Amount must be more than zero\");\n        updateSellerBalance(_seller, msg.value);\n    }\n\n    function updateSellerBalance(address _seller, uint256 _amount) public {\n        // add to token balance when seller's item is sold\n        sellersBalance[_seller] = sellersBalance[_seller] + _amount;\n        if (checkSellerList(_seller) == false) {\n            sellers.push(_seller);\n        }\n    }\n\n    function checkSellerList(address _seller) public view returns (bool) {\n        for (uint256 _index = 0; _index < sellers.length; _index++) {\n            if (sellers[_index] == _seller) {\n                return true;\n            }\n        }\n        return false;\n    }\n\n    function adminWithdraw() public payable onlyOwner {\n        require(\n            sellers.length > 0,\n            \"No sellers yet: no items sold on this network\"\n        );\n        for (uint256 index = 0; index < sellers.length; index++) {\n            payable(sellers[index]).transfer(sellersBalance[sellers[index]]);\n            sellersBalance[sellers[index]] = 0;\n        }\n    }\n\n    function withdraw() public {\n        require(checkSellerList(msg.sender), \"User has not sold any item yet.\");\n        uint256 balance = sellersBalance[msg.sender];\n        require(balance > 0, \"Your balance cannot be 0\");\n        payable(msg.sender).transfer(balance);\n        sellersBalance[msg.sender] = 0;\n        //removeFromList(msg.sender);\n    }\n\n    function checkSellerBalance(\n        address _sellerAddress\n    ) public view returns (uint256) {\n        if (!checkSellerList(_sellerAddress)) {\n            return 0;\n        }\n        return sellersBalance[_sellerAddress];\n    }\n\n    //function removeFromList(address _sellerAddress) public {\n    //    for (uint256 index = 0; index < sellers.length; index++){\n    //        if (sellers[index] == _sellerAddress){\n    //            removeSeller(index);\n    //        }\n    //    }\n    //}\n\n    function removeSeller(uint256 _index) private {\n        for (uint256 i = _index; i < sellers.length - 1; i++) {\n            sellers[i] = sellers[i + 1];\n        }\n        sellers.pop();\n    }\n}\n","sourcePath":"contracts/OnlineStore.sol","type":"contract","deployment":{"address":"0x8873AE54c9988B7a2db57C82F7554292615759DF","chainid":"59140","blockHeight":907660}}